{
  "contractName": "TestContract",
  "abi": [
    {
      "constant": false,
      "inputs": [
        {
          "internalType": "string",
          "name": "name",
          "type": "string"
        },
        {
          "internalType": "uint256",
          "name": "price",
          "type": "uint256"
        }
      ],
      "name": "create",
      "outputs": [
        {
          "internalType": "bool",
          "name": "",
          "type": "bool"
        }
      ],
      "payable": false,
      "stateMutability": "nonpayable",
      "type": "function"
    },
    {
      "constant": true,
      "inputs": [
        {
          "internalType": "address",
          "name": "addr",
          "type": "address"
        }
      ],
      "name": "getTest",
      "outputs": [
        {
          "internalType": "string",
          "name": "name",
          "type": "string"
        },
        {
          "internalType": "uint256",
          "name": "price",
          "type": "uint256"
        }
      ],
      "payable": false,
      "stateMutability": "view",
      "type": "function"
    },
    {
      "constant": false,
      "inputs": [
        {
          "internalType": "address",
          "name": "addr",
          "type": "address"
        },
        {
          "internalType": "uint256",
          "name": "newPrice",
          "type": "uint256"
        }
      ],
      "name": "updateTest",
      "outputs": [
        {
          "internalType": "bool",
          "name": "",
          "type": "bool"
        }
      ],
      "payable": false,
      "stateMutability": "nonpayable",
      "type": "function"
    },
    {
      "constant": false,
      "inputs": [
        {
          "internalType": "address",
          "name": "addr",
          "type": "address"
        }
      ],
      "name": "delteTest",
      "outputs": [
        {
          "internalType": "bool",
          "name": "",
          "type": "bool"
        }
      ],
      "payable": false,
      "stateMutability": "nonpayable",
      "type": "function"
    }
  ],
  "bytecode": "0x608060405234801561001057600080fd5b50610609806100206000396000f3fe608060405234801561001057600080fd5b506004361061004c5760003560e01c806330b882681461005157806346f81a87146100ad578063480b259e1461018a5780636cba9709146101f0575b600080fd5b6100936004803603602081101561006757600080fd5b81019080803573ffffffffffffffffffffffffffffffffffffffff1690602001909291905050506102b4565b604051808215151515815260200191505060405180910390f35b610170600480360360408110156100c357600080fd5b81019080803590602001906401000000008111156100e057600080fd5b8201836020820111156100f257600080fd5b8035906020019184600183028401116401000000008311171561011457600080fd5b91908080601f016020809104026020016040519081016040528093929190818152602001838380828437600081840152601f19601f82011690508083019250505050505050919291929080359060200190929190505050610318565b604051808215151515815260200191505060405180910390f35b6101d6600480360360408110156101a057600080fd5b81019080803573ffffffffffffffffffffffffffffffffffffffff169060200190929190803590602001909291905050506103a1565b604051808215151515815260200191505060405180910390f35b6102326004803603602081101561020657600080fd5b81019080803573ffffffffffffffffffffffffffffffffffffffff1690602001909291905050506103f3565b6040518080602001838152602001828103825284818151815260200191508051906020019080838360005b8381101561027857808201518184015260208101905061025d565b50505050905090810190601f1680156102a55780820380516001836020036101000a031916815260200191505b50935050505060405180910390f35b60008060008373ffffffffffffffffffffffffffffffffffffffff1673ffffffffffffffffffffffffffffffffffffffff1681526020019081526020016000206000808201600061030591906104e7565b6001820160009055505060019050919050565b60006040518060400160405280848152602001838152506000803373ffffffffffffffffffffffffffffffffffffffff1673ffffffffffffffffffffffffffffffffffffffff168152602001908152602001600020600082015181600001908051906020019061038992919061052f565b50602082015181600101559050506001905092915050565b6000816000808573ffffffffffffffffffffffffffffffffffffffff1673ffffffffffffffffffffffffffffffffffffffff168152602001908152602001600020600101819055506001905092915050565b60606000806000808573ffffffffffffffffffffffffffffffffffffffff1673ffffffffffffffffffffffffffffffffffffffff1681526020019081526020016000209050806000018160010154818054600181600116156101000203166002900480601f0160208091040260200160405190810160405280929190818152602001828054600181600116156101000203166002900480156104d65780601f106104ab576101008083540402835291602001916104d6565b820191906000526020600020905b8154815290600101906020018083116104b957829003601f168201915b505050505091509250925050915091565b50805460018160011615610100020316600290046000825580601f1061050d575061052c565b601f01602090049060005260206000209081019061052b91906105af565b5b50565b828054600181600116156101000203166002900490600052602060002090601f016020900481019282601f1061057057805160ff191683800117855561059e565b8280016001018555821561059e579182015b8281111561059d578251825591602001919060010190610582565b5b5090506105ab91906105af565b5090565b6105d191905b808211156105cd5760008160009055506001016105b5565b5090565b9056fea265627a7a723158207a96dda0d5567776b8b686e3db32d69d141534fe0e9b38d4871cb2838392b04164736f6c63430005100032",
  "source": "// SPDX-Liscense-Identifier: GPL-3.0\npragma solidity ^0.5.16;\n\ncontract TestContract {\n    struct Test {\n        string name;\n        uint price;\n    }\n\n    mapping(address => Test) tests;\n\n    function create(string memory name, uint price) public returns(bool) {\n//sending it to whomever sent the create methods address\n        tests[msg.sender] = Test({\n            name: name,\n            price: price\n        });\n        return true;\n    }\n    //takes an address, public, view(just retrieving state), returns something with a name and price.\n    function getTest(address addr) public view returns(string memory name, uint price) {\n        //\"find by id\" look up the test and then returning the test with the proper address\n        Test storage test = tests[addr];\n        return (test.name, test.price);\n    }\n\n    function updateTest(address addr, uint newPrice) public returns (bool) {\n        tests[addr].price = newPrice;\n        return true;\n    }\n\n    function delteTest(address addr) public returns(bool) {\n        delete tests[addr];\n        return true;\n    }\n\n\n\n}",
  "sourcePath": "/Users/tylerfarris/Documents/Alchemy/first_coin/contracts/TestContract.sol",
  "compiler": {
    "name": "solc",
    "version": "0.5.16+commit.9c3226ce.Emscripten.clang"
  },
  "schemaVersion": "3.3.4",
  "updatedAt": "2021-04-22T23:04:58.626Z",
  "networkType": "ethereum",
  "devdoc": {
    "methods": {}
  },
  "userdoc": {
    "methods": {}
  }
}